:020000040800F2
:1000000000000320F5270008811100088311000873
:100010004528000845280008452800080000000081
:100020000000000000000000000000008511000832
:100030008711000800000000891100088B110008DA
:10004000452800084528000845280008AD1100088B
:100050004528000845280008911100089311000860
:1000600045280008452800088F1100084528000889
:100070004528000845280008A71100084528000861
:10008000452800084528000845280008452800089C
:10009000452800084528000845280008452800088C
:1000A000452800084528000845280008452800087C
:1000B000452800084528000845280008452800086C
:1000C000452800084528000845280008452800085C
:1000D00095110008A11100084528000845280008CE
:1000E000452800084528000845280008452800083C
:1000F000B5110008B111000845280008452800087E
:10010000452800084528000845280008452800081B
:10011000452800084528000845280008452800080B
:1001200045280008452800089B11000845280008BC
:0C01300045280008452800084528000864
:1001400010B5054C237833B9044B13B10448AFF311
:1001500000800123237010BD2C020020000000004D
:100160000070000808B5034B1BB103490348AFF307
:10017000008008BD00000000300200200070000870
:10018000034613F8012B002AFBD1181A01387047D7
:1001900001F0FF01102A2BDB10F0070F08D010F838
:1001A000013B013A8B422DD010F0070F42B3F6D13C
:1001B000F0B441EA012141EA014122F007047FF055
:1001C00000070023F0E80256083C85EA010586EAAC
:1001D000010685FA47F5A3FA87F586FA47F6A5FAE8
:1001E00087F68EB9EED1F0BC01F0FF0102F00702F4
:1001F00032B110F8013B013A83EA010313B1F8D19F
:100200000020704701387047002D06BF354603387F
:10021000073815F0010F07D1013015F4807F02BFB8
:10022000013015F4C03F0130F0BC0138704700BF09
:1002300053B94AB9002908BF00281CBF4FF0FF314D
:100240004FF0FF3000F072B9ADF1080C6DE904CE4B
:1002500000F006F8DDF804E0DDE9022304B07047A1
:100260002DE9F047089E04468846002B4BD18A4270
:10027000154667D9B2FA82F24AB1C2F1200701FAF3
:1002800002F320FA07F7954047EA030894404FEA43
:10029000154E230CB8FBFEF71FFA85FC0EFB1788E2
:1002A00043EA084307FB0CF1994209D9EB1807F11F
:1002B000FF3080F01B81994240F21881023F2B44AD
:1002C0005B1AA4B2B3FBFEF00EFB103344EA034406
:1002D00000FB0CFCA44509D92C1900F1FF3380F078
:1002E0000781A44540F2048102382C4440EA0740CB
:1002F000A4EB0C0400271EB1D4400023C6E9004340
:100300003946BDE8F0878B4209D9002E00F0EB801A
:100310000027C6E9000138463946BDE8F087B3FA40
:1003200083F7002F47D18B4202D3824200F2FA803A
:10033000841A61EB030301209846002EE0D0C6E941
:100340000048DDE702B9FFDEB2FA82F2002A40F08F
:100350008F80491B4FEA154E1FFA85F80127B1FB24
:10036000FEFC230C0EFB1C1143EA014308FB0CF1BD
:10037000994207D9EB180CF1FF3002D2994200F2F2
:10038000CD808446591AA3B2B1FBFEF00EFB1014C7
:1003900043EA044408FB00F8A04507D92C1900F1F2
:1003A000FF3302D2A04500F2B6801846A4EB080441
:1003B00040EA0C409FE7C7F1200CBB4022FA0CFE3C
:1003C0004EEA030E01FA07F420FA0CF521FA0CF3B9
:1003D0004FEA1E482543B3FBF8F92C0C08FB1933F0
:1003E0001FFA8EFA44EA034309FB0AF49C4202FA1C
:1003F00007F200FA07F10BD91EEB030309F1FF30F6
:1004000080F087809C4240F28480A9F10209734405
:100410001B1BADB2B3FBF8F008FB103345EA0344F5
:1004200000FB0AFAA24508D91EEB040400F1FF33D1
:100430006BD2A24569D90238744440EA0940A0FB56
:100440000289A4EB0A044C45C2464B4654D351D012
:10045000002E69D0B1EB0A0564EB030404FA0CFC2E
:10046000FD40FC404CEA0505C6E90054002747E77B
:10047000C2F1200320FA03F7954001FA02F021FAB5
:1004800003F34FEA154E3843010CB3FBFEF71FFA96
:1004900085F80EFB173341EA034107FB08F38B4253
:1004A00004FA02F407D9691807F1FF3C2FD28B42F6
:1004B0002DD9023F2944CB1A81B2B3FBFEF00EFBCB
:1004C000103341EA034100FB08F38B4207D9691856
:1004D00000F1FF3C17D28B4215D902382944C91AC2
:1004E00040EA07473BE73746304609E70746E7E675
:1004F0001846FBE64145ABD2B8EB020A69EB0E02A7
:1005000001381346A4E76046E9E7184695E76746D1
:10051000D1E781467CE702382C4447E7ACF1020C76
:100520002B442FE7384608E73746E9E6704700BF17
:10053000704708B505F03CF80021012005F0D6FA17
:10054000BDE8084000F014BF10B54FF0B04288B0CD
:100550009368284C43F40043936005F0BFFA2649A2
:10056000002000F051F902F0D5FA244BD3F8902086
:1005700042F48032C3F89020D3F8D02042F4803285
:10058000C3F8D02005F05CF80121084605F0AEFA6A
:10059000002002F099F9012002F096F9022002F001
:1005A00093F9012002F0B8F90121002002F0D0F9FE
:1005B00004F022FF124A0021402005F0C9FA6946E2
:1005C000104B11480094019304F06CFE04F58673FF
:1005D000029304F50673039302A840F23C5304F51A
:1005E00049740593049404F0B5FF04F003FF08B0C8
:1005F00010BD00BFC40103202C04002000080058D7
:10060000F1520008310500083305000870474FF02B
:10061000FF3005F0E9BA0021402005F0A9BA022018
:1006200005F0D4BA022005F04BBB022000F00CBB51
:1006300013460A460146022000F076BB054A906A3E
:10064000936A80B29BB2984200D17047916A184673
:100650008BB2F8E700280040F0B5174B1A788242B9
:100660004FF0180415D11A78D2B25A7004FB003238
:10067000527ED2B21A70182202FB0030012202749C
:100680001A78062A04D119B94FF0FF32C3F8942022
:10069000F0BD04FB00352E7E6A7E6F7E04FB0636BD
:1006A000D2B2FFB2062A77761FBF2D7E04FB02323C
:1006B000EDB21576DFE700BF9800002010B50D4CB5
:1006C000D4F89430013313D0FFF7B8FFD4F8943046
:1006D0008342094B3BBFD4F894101A88D4F8942075
:1006E0005218101A9A78DB785043D84080B210BD67
:1006F0000020FBE798000020480200202DE9F0418F
:100700003D4E3E4BD6F804809A68D8F8003012F47B
:10071000806F03D0DA6812F0040FFAE79A68384D58
:1007200022F480629A602F781823FFB203FB0753EC
:10073000DC68FFF7C3FFA04207D9012385F8983092
:10074000002318244FF0000C1BE033890344A3421C
:1007500039BF33890022231A012234BF9BB29BB2D6
:1007600085F89820EDE704FB075204FB0757D16892
:10077000884297BFD168C2F80CC0091AD1607F7E49
:10078000FFB2062FEFD143B9FFF758FFC5F8940029
:100790000320BDE8F04102F043BA012B02D8F27801
:1007A000012A26D0013B9CB2D8F80030DA68520703
:1007B000FCD5D968C9B261F49061D960114B4FF48E
:1007C0000022DA60032002F03BFA0C4B5A69120C4B
:1007D000120422435A61FFF731FF7368C5F8940091
:1007E0001A68936843F480639360AFF30080BDE8B8
:1007F000F0811446D8E700BF4802002000280040DE
:10080000980000200008005870B50D683E4E3F4C1F
:10081000CA236B6253236B62B368616043F02003A9
:10082000B360B36803F00703C3F10403D9B2E17006
:1008300032694FF4FE0393FAA3F3B3FA83F302F49D
:10084000FE02DA400132D2B2A2703369C3F30E0362
:1008500001332380013B5343A3F5A073CB404FF6F4
:10086000FE72934288BF4FF6FF73294A98BF9BB22E
:100870002381136843F400231360D2F8803043F4DB
:100880000023C2F88030002837D1224B012183F8A1
:1008900098104FF0FF31C3F894100621187483F8B4
:1008A000280083F8400083F8580083F8700083F82C
:1008B00088001970AB6823F48063AB60EB68DBB22F
:1008C00063F49063EB604FF40023D360032002F0E5
:1008D000B7F963681A68936843F480439360636868
:1008E0001B68FF2203215A620846002202F02CF9FD
:1008F0000320BDE8704002F05BB9EB685B05EED504
:10090000032002F08DF9EAE70028004048020020A9
:1009100000080058980000202DE9F047EFF31087F9
:1009200072B6DFF8449000254FF0180A0AFB0594D0
:100930005FFA85FE94F810C00CF0FF06BCF1000FC2
:100940000BD10125257487F31088606162743046ED
:10095000636081F800E0BDE8F0870135062DE5D140
:1009600087F310880120F6E7980000202DE9F04178
:100970008046EFF3108572B6234C244E032002F01C
:1009800025F967683B68CA225A6253225A621823C3
:1009900003FB08631B7C022B24D100214046FFF798
:1009A0005BFE3378DBB2062B27D1194B9A683B6884
:1009B00012F4806F03D0DA6812F0040FFAE79A6835
:1009C00022F480629A60DA685207FCD5DA68D2B203
:1009D00062F49062DA600F4B4FF40022DA60032079
:1009E00002F02EF963681B68FF225A62032002F0AE
:1009F000DFF885F31088BDE8F08172789A42F1D073
:100A0000FFF77CFEEEE700BF4802002098000020C0
:100A100000280040000800582DE9F8434B4C1823EB
:100A200003FB004305461B7C022B0F4601D1FFF759
:100A30009DFFEFF3108872B6032002F0C7F8444A16
:100A400053681B68CA211826596206FB05495321C1
:100A50005962022389F81030C9F80C70C9F808707F
:100A60002378DBB2062B17461BD12278D2B26270F4
:100A7000257089F819304FF0FF33C4F89430002006
:100A8000237862789A425AD0FFF738FE7B681B6859
:100A9000FF225A62032002F08BF888F31088BDE829
:100AA000F883FFF70BFED9F80C300344C9F80C307B
:100AB000D9F80C10237806FB0343DB68994223D353
:100AC0002378DBB206FB0342527ED2B2062A04D060
:100AD00006FB0242D268914212D2182101FB034266
:100AE000527ED2B2062A1CBF01FB02410D761821AC
:100AF00001FB05467276337601FB03435D76BFE763
:100B000006FB03435B7EDCE722782378D2B29A426D
:100B100006FB02F30FD02344197EC9B206FB01463F
:100B2000757689F8192089F818101D762378DBB2BC
:100B300063702570A4E789F819202344F5E718238A
:100B400003FB0544E368181AE0609FE79800002063
:100B500048020020104700002DE9F84FEFF31087FE
:100B600072B62A4E73681B684FF0CA0B4FF05308D9
:100B7000C3F824B0C3F824809A6822F480629A6093
:100B8000234A14781825E4B205FB0425297C0229A0
:100B90002FD1D5F804A0D5F8149092F898301BB353
:100BA000697CC9B2012919D12046FFF755FD87F3A9
:100BB0001088A9682046FFF72FFF73681B6852460C
:100BC000C3F824B02146C3F824804846FFF7C2FF8B
:100BD00073681B68FF225A62BDE8F88F87F310889C
:100BE0002046FFF7C3FEE8E7FFF788FD87F310888C
:100BF000EEE7DA685207FCD5DA68D2B262F49062A6
:100C0000DA60044B4FF40022DA60EFE7480200207C
:100C100098000020000800584FF0B04382B09A6C52
:100C200002439A649B6C18400190019B02B070478C
:100C30004FF0B04382B0DA6C0243DA64DB6C1840E8
:100C40000190019B02B0704710B1022814D0704788
:100C5000154BDFF85CC018614FF4E132C3E900C204
:100C60000C225A614FF40042C3E902009861986275
:100C7000DA61184603F0C0BB0B480C4A4FF4E1336D
:100C8000C0E923230C220023C0F8A0204FF4004227
:100C9000C0E92533C0F89C30C0F8A430C0F8A820C3
:100CA000C0F8B4308C30E5E75402002000800040EA
:100CB0000038014010B1022807D070470648036091
:100CC0000648074B036002F02DBB0648036003484B
:100CD000054B40F88C3FF6E7BC2100205402002071
:100CE00000380140B82100200080004010B518B144
:100CF00002280DD0002010BD0848094C046003F004
:100D0000ECFA0228F7D00328F5D00128F2D1F2E757
:100D10000248044C40F88C4FF1E700BF5402002019
:100D2000003801400080004008B518B102280FD0FB
:100D3000002008BD0A4803600A480B4B036002F01C
:100D400069FB0228F5D00328F3D00128F0D1F0E7A1
:100D5000064803600348064B40F88C3FEFE700BFAE
:100D6000C42100205402002000380140C02100208E
:100D70000080004010B1022803D07047024802F002
:100D8000DDBC0248FBE700BF54020020E002002067
:100D900010B1022804D07047034B586F02F08BB893
:100DA000014BD3F80001F9E7540200202DE9F0438C
:100DB000064689B01422002103A804F0CCFF336852
:100DC0007D4A934200F0818002F53842934279D106
:100DD00002200025FFF72CFF022440234FF00708D4
:100DE0004FF0030903A97548CDF81C80CDE9033401
:100DF000CDE9055902F0AAF82046FFF719FF802730
:100E000003A96E48CDF81C80CDE90374CDE90559DE
:100E100002F09CF80120FFF70BFF4FF4006303A9D9
:100E20004FF09040CDE90334CDE90549CDF81C8061
:100E300002F08CF84FF0B0430F21D3F8882022F055
:100E4000030242F00102C3F888201A6E42F4804285
:100E50001A661B6E03F480432A4601932420019BEB
:100E600001F072FE242001F0A3FE2046544CFFF74F
:100E7000D3FE0420FFF7D0FE524BC4F8287104F5CE
:100E80008C77C4F818314FF00F0810233846C4F897
:100E90002031C4F81C81C4F82451C4F82C51C4F882
:100EA0003051C4F83451C4F8385101F01BFF3A20D6
:100EB00077672A464146C4F8406101F045FE3A2072
:100EC00001F076FE09B0BDE8F08301200025FFF7B0
:100ED000AFFE022708244FF0030903A94FF00408CE
:100EE0004FF09040CDE903870794CDE9055902F012
:100EF0002DF80120FFF79CFE03A94FF09040CDE9AB
:100F000003470794CDE9055902F020F80120FFF7C7
:100F10008FFE402303A94FF09040CDE90337CDE980
:100F20000579079402F012F84FF0B0430F21D3F87F
:100F30008820234C22F4406242F48062C3F8882067
:100F4000DA6D42F00102DA65DB6D03F001032A4637
:100F500002932520029B01F0F7FD252001F028FED9
:100F60000120FFF759FE4046FFF756FE164BC4F826
:100F700078311123C4F87C3104F5BC771023C4F810
:100F8000803138468023C4F88831C4F88451C4F8CD
:100F90008C51C4F89051C4F89451C4F8985101F0A0
:100FA000A1FE0E2077672A460F21C4F8A06101F048
:100FB000CBFD0E2084E700BF008000400004004805
:100FC0005402002044040240440002400368074ADF
:100FD000934207D002F53842934205D1044B1B6877
:100FE00013B11847034BFAE7704700BF0080004079
:100FF000BC210020B82100200368074A934207D093
:1010000002F53842934205D1044B1B6813B11847CF
:10101000034BFAE7704700BF00800040C421002066
:10102000C02100204FF0B04407B501F04BFDD4F8CB
:1010300094305B0113D5D4F89430D8000FD402F06B
:101040003DF802F03BF8D4F8903043F48033C4F814
:101050009030D4F8903023F48033C4F890304FF0BF
:10106000B0443F22236D43F480132365236D03F4C2
:1010700080130193019B314B9A609A615A6842F444
:101080007C125A605A6942F47C125A615A6842F0E2
:101090003F025A605A6942F03F025A6102F00EF86C
:1010A00002F00CF8D4F8903043F00103C4F890300B
:1010B000D4F890309907FBD5D4F8943023F440430A
:1010C00043F48043C4F894301D4BD3F880200022B1
:1010D000C3F88020D3F8902002F05002C3F890208B
:1010E00001F0ECFF01F0EAFFD4F89030154823F44A
:1010F000407343F48073C4F89030D4F8903043F4D4
:101100000043C4F890300F220F4C046047F6FF7381
:10111000C0E9022302F099F8CA2363625323636291
:10112000A36823F00703A360FF236362FFF70CFAB1
:101130004FF0FF3004F058FDFAE700BF000C0058F4
:10114000000800582C0400200028004070B5044618
:1011500001F0D4FC631C064602D001F0D5FC044427
:10116000064D04E02B6923F004032B6130BF01F02E
:10117000C5FC801BA042F5D370BD00BF00ED00E0B0
:101180007047FEE770477047704701F0ABBC70478F
:10119000704770470020FFF7EDBD0020FFF7F8BD56
:1011A0000220FFF7E7BD0220FFF7F2BDFFF7D4BC36
:1011B00001F098BA01F0F6BA0021012004F0D8BC81
:1011C00010B504464068083003F032FA10B101232C
:1011D000237010BD2070FCE710B1012803D07047C8
:1011E0003F2004F0D9BC3F2004F0E4BC30B5164DDC
:1011F000164895F8904089B004F03EFEF4B91023EB
:10120000CDE905334FF4C8735022CDE903434FF4C1
:1012100048712823CDE9013200940D4B224608463F
:1012200003F09EFB20B9032385F8903009B030BD50
:10123000022001F071FB85F89040F7E7054809B0FE
:10124000BDE8304004F018BE34010020F2710008FF
:10125000C8210020147200080F4B10B593F890407D
:10126000BCB9204601F058FB4FF4487101232246D7
:10127000084603F049FB38B1084804F0FDFD0220A0
:10128000BDE8104001F048BB0548BDE8104004F03F
:10129000F3BD0448F9E700BF340100207172000873
:1012A0004C720008A172000830B5284C94F89030B8
:1012B000012B89B043D194F89100FFF757FB00222E
:1012C00094F89010224804F04FFD94F89030013BC0
:1012D000012B07D803F0E0F9024620BB01461D4868
:1012E00004F042FD022384F890301B4B049394F8E1
:1012F00028300393194B029300250423CDE90053B2
:101300004FF47A62CDE905552B464FF4C861284663
:1013100003F0E0F9024658B90146114809B0BDE8AA
:10132000304004F021BD00210E4804F01DFDD9E736
:101330000D48294609B0BDE8304004F015BD0B4802
:1013400009B0BDE8304004F097BD00BF3401002073
:10135000A6730008CD7200085D0100201870000817
:101360002F730008FC72000866730008C37300083E
:1013700070B5674B96B00AAA03F12806154618689F
:101380005968144603C40833B3422246F7D118689B
:101390001B7923715F4B206008A908935E485F4B5F
:1013A000099303F09FFE0121022004F09FFB5C4C97
:1013B0005C4A0021202004F0CBFB2846002503F0E6
:1013C00069FEADF8185003F07FFD23685A1C00F049
:1013D0009780554A1168554A180A13701B0C937070
:1013E000D1700B0A090C5070137151710621002045
:1013F00003F018FD4EF66E5309932368089308AA6C
:1014000006212E2003F00EFD494A4A4D10211820D6
:1014100003F008FD484A1021082003F003FD1821BD
:10142000012003F02BFD03F0DFFA0DF11E03019301
:1014300007AB009307220DF11A030021042003F0EB
:1014400003FA3E4BBDF81C10009300220723BDF8A1
:101450001A0003F08FFB06AB00220024BDF81E101B
:101460000093BDF81A00022303F084FB20462C7081
:1014700003F08CF940F60102AA8210220123AA751A
:101480002F4A6B70EC70AA61AB702B191C71013480
:10149000102CFAD12A4A0023CDE903230121082286
:1014A0000092CDE901411A46084603F091F9AB7864
:1014B0000BB103F00BFA03F099F8224A0021012046
:1014C00004F046FB204A0021042004F041FB1F4A9F
:1014D0000021082004F03CFB00244FF6FF73EB844E
:1014E00085F8904001F004F8194B1A49224620462D
:1014F000FFF712FA2146042004F03AFB16B070BD43
:10150000284604F0E1F8144A002818BF02466DE7A7
:101510002270000824000320C1110008D91100081E
:101520008075FF1F315100088475FF1F5004002093
:101530004F700008340100205F700008E473000859
:1015400007B20100A912000859120008ED110008A5
:10155000B9110008C50100201C7000082DE9F04FEA
:1015600043783E2B85B0044636D0FF2B16D0052B92
:101570002ED1BB4D8188BB4804F0F6FBEA8CA388D2
:101580009A4240F0C7810021B74804F0EDFB0023E8
:1015900085F890304FF6FF73EB8419E0B0F8032024
:1015A00040F207439A4213D14379022B10D1847938
:1015B00074B9204601F0BEF9AC4804F05DFCA84BBC
:1015C00093F89230012B03D12146082004F0D0FA81
:1015D000012005B0BDE8F08FC378012B34D0022B79
:1015E000F6D14679002EF3D190F80DB000F10E0738
:1015F0005E45EDD2BD5D9E4807EB0608294604F026
:10160000B3FB98F801909B48494609F1FF3904F073
:10161000ABFBB9F1150F5ED8DFE819F04F007B0086
:101620005D005D005D00D1005D005D006A00BD00F1
:101630005D005D005D005D005D005D005D005D00C2
:101640005D0052015D006701854D95F89100FFF73F
:101650008DF9B4F80510884804F086FB95F89010D1
:1016600011F0FB0F00F05881052900F05581002290
:10167000824804F079FB95F89030032B17D10523AD
:1016800085F89030A279637943EA0223EB84002441
:10169000103405EB44057A4804F0EEFBE88803F0CB
:1016A00099FA014628B9774804F0E6FB90E704234D
:1016B000E6E7754804F058FB8AE77448DFF8D8A1DC
:1016C00004F052FB4FF000095FFA89F3AB4206D3F6
:1016D0000A2004F061FB01352E44F6B288E708EBDE
:1016E00009035046997804F03FFB09F10109EBE743
:1016F000674804F039FB4FF000095FFA89F39D4217
:10170000E6D908EB090309F10109987804F044FBD4
:10171000F3E7604804F028FB5F4B4FF0000A06F146
:1017200002095FFA8AF295422AD80A2004F034FBB3
:1017300098F8032017F8093003EB02239BB24FF609
:1017400060629342C7D15548DFF8709104F094FB72
:10175000434B5348012283F8922004F08DFB4E4BFB
:1017600004F1070804F10C0A18F8011B09F8011F1D
:101770001846039304F0F8FAC245039BF4D1A7E797
:1017800008EB0A021846917803930AF1010A04F063
:10179000EBFA039BC5E74348DFF8FCA004F0E4FA4A
:1017A0004FF000095FFA89F3AB4291D208EB0903CD
:1017B0005046997804F0D8FA09F10109F2E73A485D
:1017C00004F0D2FA4FF0000A6B1E5FFA8AF89845CF
:1017D00002DB4FF0010820E006F10209C1442E4867
:1017E00017F80910039304F0BFFA304B17F80910EB
:1017F00003EB08020AF1010A92F85720039B8A4280
:10180000E3D0CDE9008133464146294804F0ACFAE3
:10181000284804F031FB4FF000080A2004F0BCFA1D
:10182000B8F1000F3FF457AF2348DFF8909004F071
:1018300023FB0B4B1A4883F8928004F095FA164B61
:1018400004F1070804F10D0A18F8011B09F8011F3B
:101850001846039304F088FAC245039BF4D137E796
:1018600034010020197400082F770008EC73000879
:1018700013750008237500084A740008C67700082D
:101880007B7400089E740008D3740008317500084A
:1018900046750008647500084375000881750008E6
:1018A000BB750008D4750008EF75000818700008B3
:1018B0000D7600084976000883760008C7210020CD
:1018C0001848DFF870A004F04FFA4FF000095FFAF3
:1018D00089F39D427FF6FCAE08EB090350469978E8
:1018E00004F042FA09F10109F1E70F48DFF844A0DA
:1018F00004F03AFA4FF000095FFA89F39D427FF64F
:10190000E7AE08EB09035046997804F02DFA09F187
:101910000109F1E70548C7E6054804F0ADFA0124DE
:10192000B6E600BFBE760008E8760008017700083A
:10193000547700084375000810B5094CE38C8342C6
:10194000014604D0074804F00FFA002010BD002221
:101950001946054804F008FA94F89000F6E700BF2D
:1019600034010020E37700080F78000800212020D0
:1019700004F0FEB8012004F029B9012004F0A0B958
:1019800073B5814C2378022B1CD0043B082B19D84B
:10199000DFE813F01A00350064004D007B00920070
:1019A000BA00D9000900794804F066FA6088FFF7A8
:1019B000C3FF38B9764804F05FFA022323704FF66C
:1019C000FF73638002B070BD724804F055FAE2887C
:1019D000A188608803F024F9054618B96E4804F020
:1019E0004BFAEFE701466D4804F0BEF9462DE9D108
:1019F000022323706A4B6B4801221A70EFE76A4892
:101A000004F03AFAE288A188608803F033F90546C9
:101A100008B96648E3E7664804F02EFA462DD1D1AE
:101A2000042323705E4B634801221A70D7E7624893
:101A300004F022FA6189608803F046F9054608B986
:101A40005E48CCE75E4804F017FA462DBAD107236A
:101A50002370534B5B4801221A70C0E75A4804F0C8
:101A60000BFA2189608803F02FF9054608B9574819
:101A7000B5E7574804F000FA462DA3D1062323709A
:101A8000474B544801221A70A9E7534804F0F4F96F
:101A9000A189608803F070F9054608B94F489EE7B0
:101AA0004F4804F0E9F9462D8CD1082323703C4BB4
:101AB0004C4801221A7092E7394D4B4804F0DCF98A
:101AC000681CFEF75DFB6B1CC2B22189608803F0C5
:101AD0007BF9064660B9454804F0CEF90C2344482A
:101AE000237004F0C9F93146022004F041F869E797
:101AF000404804F0C1F9462E7FF464AF09232370F7
:101B000001232B703C486AE702AE012526F8045DEC
:101B10003A4804F0B1F933460222A189608803F003
:101B2000FBF8064618B91E4B35481D7057E7354877
:101B300004F0A2F9462E7FF445AF0A232370184B18
:101B400031481D704BE702AD002325F8043D2F48B6
:101B500004F092F92B460222A189608803F0DCF898
:101B6000054620B90E4B2A4801221A7037E729484A
:101B700004F082F9462D7FF425AF0B232370084B28
:101B8000254801221A702AE7C80100204383000873
:101B90004478000887820008597800088A7800088D
:101BA00058040020CA780008B482000801790008AF
:101BB0002A79000850790008847900089E79000885
:101BC000CB790008E77900086B7A0008157A0008DD
:101BD000347A0008497A0008777A00089C7A00086D
:101BE000C07A0008D87A00081A8600080A7B000824
:101BF0002A7B0008487B00085E7B0008DB82000827
:101C00008D7B0008BB7B0008E37B00089A7C000802
:101C1000207C00084F7C0008787C00082DE9F04FFC
:101C20004378FF2B9BB0044655D1B0F80310C04851
:101C300004F09AF8B4F80330A3F604430D2B4AD805
:101C4000DFE813F0E50149009D003D02490049002D
:101C50000E0049004900490049007B02DA027B037B
:101C6000B44DB4F805602B78022B1FFA86F819D012
:101C70006888FFF761FE698802460746AE4804F0AF
:101C800073F82B780C3B012B00F27883002F40F087
:101C900075836988A94804F067F802232B70A84B64
:101CA00001221A706E8000224146A64804F05CF8BA
:101CB000E379142B0FD1DFF8C892DFF8B082DFF898
:101CC000C4A2277AB7FBF3F74FF0000B10265FFA98
:101CD0008BF39F4203D800201BB0BDE8F08F9A4BD6
:101CE0000DF1500C03F1100E18685968624603C2DA
:101CF000083373459446F7D1E2790021101F053A65
:101D0000CBB2834225DB0021484604F02DF8A6F132
:101D10001003621DD118234449795B7A43EA0123F9
:101D2000AB80A6F10E031A44234452795B7A43EA4E
:101D30000223EB80404604F09FF8EA88A9885046C9
:101D400004F012F8404604F097F87D4B01221A7017
:101D500010E004EB030C0DF1680ED31A73449CF8E9
:101D60000DC013F8183C9C4501F10101C8D077481B
:101D700004F082F81436F6B20BF1010BA7E76D4EB2
:101D8000B4F8053072889A4240F0FA823378042B16
:101D9000A1D1B4F80930B2889A429CD8F2889A420C
:101DA00099D36B4804F068F8E379152B93D111258A
:101DB00047E0063A09F1050AA2EB09021AABA24470
:101DC0001A449AF8091012F8282C914211D061484F
:101DD00004F052F8E2799AF809105F48063A1AAB13
:101DE000A2EB09021A4408F0020812F8282C03F0AA
:101DF000BBFFE2799AF80910063AA2EB09021AAB86
:101E00001A4412F8182C914211D0544804F034F8B6
:101E1000E2799AF809105248063AA2EB09091AAB7E
:101E2000994408F0010819F8182C03F09DFF0BF1F4
:101E3000010BB8F1000F2DD1237A1535153B237214
:101E4000EDB2237A002B3FF446AF464B10AF03F1BF
:101E5000100C186859683A4603C2083363451746A0
:101E6000F7D1414B14AF03F1100C186859683A468A
:101E700003C2083363451746F7D1A5F10E03671D6A
:101E8000E2183B44527A5B790E920F934FF0000BAD
:101E90004FF00308E2795FFA8BF9511F894588DB1F
:101EA000DDE90E32B8F1010F43EA022B6CD12F4865
:101EB00003F0E2FFA5F111031F44234479795B7A13
:101EC0002B4843EA012103F04FFF6319294813F817
:101ED000061C03F049FF5946274803F045FF4FF021
:101EE0001908ED23CDE90B38AE2208934FF0820993
:101EF0004C234FF0210ACDE90929CDE9063A9D226C
:101F00004123CDE9043245212223CDE902310022CB
:101F100061238E20CDE900301146FE23174803F0DF
:101F200023FF124803F0A8FFA6F808B084E700BF1B
:101F3000B67C0008C8010020C97C0008E37C0008CA
:101F4000580400201E7D00087F7000084E7D0008A8
:101F50008A7E0008A97E0008DD7E00083B7F00081D
:101F60006F7F00088F7000089F700008C77D000811
:101F7000CD7F0008E57F0008FD7F00081580000880
:101F80007E7D0008417E0008B8F1020F7FF454AF57
:101F9000C14803F071FFA5F111031F44234479796F
:101FA0005B7ABE4843EA012103F0DEFE6319BC48B8
:101FB00013F8061C03F0D8FE5946BA4803F0D4FEC5
:101FC000ED231922CDE90B32089321204C23CDE9D2
:101FD00006309D2741234FF0450CAE228221CDE9EA
:101FE00004372223CDE90921CDE9023C4FF08E0EC2
:101FF00000226223CDE9003E1146FE23AA4803F0E9
:10200000B3FEA54803F038FFA6F80AB014E7A74DC1
:10201000B4F805306A889A4240F0B4812B78052BD9
:102020007FF459AEB4F80930AA889A423FF653AE0D
:10203000EA889A42FFF44FAE9D4803F01DFF267ACE
:102040009C4B9D48B608012231461A7003F08CFE65
:10205000E379012B7FF43FAEDFF8A4A2DFF83892DA
:10206000DFF8A0B204EB8607A7423FF434AEA37AB0
:1020700094F80980E67A48EA0328237B46EA032697
:1020800042463146504603F06FFE42F602139E422E
:1020900013D16B89013398450FD1484603F0ECFE0C
:1020A0004146584603F060FE3146844803F05CFE2A
:1020B000484603F0E1FEA5F80C800434D4E77B4DDC
:1020C000B4F805306A889A4240F05E812B78062B7E
:1020D00010D17B4803F0D0FE764B6F4801221A7076
:1020E00003F0CAFE2989774803F03EFE6A4803F0F0
:1020F000C3FEF0E5072B0BD1714803F0BDFE6D4B1D
:10210000654801221A7003F0B7FE69896E48EBE753
:10211000082B7FF4E0AD6A4803F0AEFE654B5E48E5
:1021200001221A7003F0A8FE627A237AA98967480F
:1021300003EB022203F018FED8E75C4EB4F805105A
:102140007388994240F02281B4F80730B2889A42ED
:102150003FF6C1ADF2889A42FFF4BDAD5C48554DE3
:1021600003F002FE01232B70B4F8072073899A4212
:102170007FF4B1AD617A574803F0F6FD637A04F15C
:102180000A01002214AED0B2834230D81AAA1344F6
:102190004148002203F8182C03F06EFE304603F08D
:1021A0006BFE3D4803F068FEAB7D092B02D8637AD5
:1021B000132B0CD80A23AB75EB7D0133DBB2162B46
:1021C00088BF0C23EB750121E87D02F0DDFE33466C
:1021D000E97DA87D404A02F0F9FEAA7D637A297E56
:1021E000687E13443D4AAB7502F0F0FE73E511F8CA
:1021F000010BB0540132C6E72E4D2B78002B3FF473
:102200006AAD2A4BB4F80520598891421C4640F02B
:10221000BF80002332482B7003F02EFE2378023B50
:10222000092B3FF658AD01A252F823F055220008C1
:10223000D71C0008692200087122000879220008D2
:102240008122000889220008912200080923000841
:102250003323000804232348237003F00DFE0021DC
:10226000022003F085FC36E5052323701E48F4E7C1
:102270000A2323701D48F0E70C2323701C48ECE769
:102280000C2323701B48E8E70C2323701A48E4E76B
:102290000C2323701948E0E7C77D00086B80000815
:1022A000838000089B800008B3800008C8010020DC
:1022B00009810008580400202C8100089F81000833
:1022C000DA810008F1810008FF8100080D82000812
:1022D000268200085C820008B6870008458700084F
:1022E000A78500087B8200089C820008C68200083F
:1022F000F682000813830008308300082A7B000858
:102300004B8100086481000802F054FE0A2108464F
:10231000214A02F05BFE214A1E210A2002F056FEED
:10232000687E1F4A297E02F051FE0C2323701D484F
:1023300093E70C2323701C488FE71C4BB4F805204F
:102340005988914226D11A78042A02D0022A7FF4B1
:10235000C2AC174A1278002A7FF4BDAC2289998852
:1023600091423FF6B8ACDB889342FFF4B4AC11481D
:1023700003F082FD0E4B01221A70ACE40E48B6E663
:102380000E48B4E60E48B2E60E48B0E60E48AEE699
:102390000E48ACE60E48AAE6518300085A830008AE
:1023A000458700086483000890830008C801002066
:1023B00058040020BD830008D68300082784000845
:1023C00075840008C78400080D850008578500083B
:1023D000C885000810B50A4C2378022B0FD0094895
:1023E00003F04AFD238953B109230748237003F002
:1023F00043FD00210220BDE8104003F0B9BB10BD31
:10240000C80100201E8600080986000837B5324D35
:10241000AB7E082B2C4618D1EB7E73B1687E2F4A19
:10242000297E0138C0B2013B6876EB7602F0CEFD22
:102430002B4A297E687E02F0C9FD2A4B2A490122D7
:102440000020FEF737FC03B030BD0D2B297E1BD1D9
:102450000A236B76EB7E0131C9B22B442A294FF057
:1024600000025A7088BF2023297688BF2B76287EE9
:10247000EA76012102F088FD194A217E607E02F091
:10248000A5FDFFF7A7FFD8E7607E8DF80430431C59
:102490006376164A01AB00258DF8055002F096FDD3
:1024A000E27EA17E531CDBB22244132BE3765170F3
:1024B000C3D92344E5765D70637E0A2B04D9237E5D
:1024C000013323760A236376237E2A2BD9D9202051
:1024D00020760121CEE700BF58040020EE880008D6
:1024E000458700080D24000872040020B687000804
:1024F00037B5184C184A0021022003F029FB0A23A3
:102500000125A3750C22637600202023E275237633
:10251000FEF79AFB2B4604F11C010095402204F1C2
:102520005C0003F01DF92A460C4B04F11A0100204F
:10253000FEF7C0FB02F03EFD094B0A48257002225F
:102540001A704FF6FF725A8003B0BDE8304002F0B7
:1025500063B800BF58040020811900080D2400084A
:10256000C80100201D1C000838B50378012B054662
:1025700043D02ED3032B47D141682448244C03F089
:10258000F3FB2B7A6A68A07E0021D154214A6B6844
:10259000617E02F01BFD2A7AA37E1344DBB2092B75
:1025A00009D8132A07D9A3761B4A217EE07DBDE80E
:1025B000384002F00BBD0A23A376637E0133DBB201
:1025C000162B88BF0C2363760121607E02F0DCFCB1
:1025D000EAE7124803F050FC02F0ECFC0A2108463E
:1025E0000F4A02F0F3FC0F4A1E210A2002F0EEFC13
:1025F000074B094A197ED87DD9E70B4803F03CFC0C
:10260000BDE8384002F0D6BC38BD00BF27860008C0
:10261000D4040020B6870008458700084A860008D1
:10262000518300085A83000861860008094BD3F8DB
:10263000D42042F40072C3F8D4201A6A42F4007223
:102640001A6240BF20BF044AD36843F40043D360FA
:10265000704700BF00080058000400584FF0B04316
:1026600007B51A6D42F480121A651B6D03F48013CE
:102670000193019B084B1A6842F001021A601A6824
:1026800042F480321A602C2000F092FA2D2003B020
:102690005DF804EB00F08CBA000C0058024A536855
:1026A00023F0010353607047000C0058024B4FF4B5
:1026B00080329A60704700BF000C0058024A53688D
:1026C00023F0020353607047000C0058044B4FF492
:1026D00000329A605A6822F400325A60704700BF94
:1026E000000C00581E4BDA6812F0020F10B51A46A3
:1026F00009D15968890306D45A6842F400325A60F5
:1027000002F008FF10BDD3689B0707D453689C03F1
:1027100004D4536843F400335360F1E7104CE3688A
:1027200013F0080F23460DD1626810030AD46368C2
:1027300043F4002363600B4B1B6898474FF400235E
:10274000A360DFE7DA689106DCD45A689202D9D434
:102750005A6842F400125A6002F0B0FED2E700BF9D
:10276000000C00585005002010B5084CE3681B070A
:1027700006D5074B1860636823F40023636010BD1F
:1027800080474FF40023A360F9E700BF000C005816
:1027900050050020024A536823F008035360704735
:1027A000000C005838B5124CE36913F0020F2546AF
:1027B00007D063689B0704D402F0B6FE0223A3602F
:1027C00009E0EB69D80707D56B68D90704D402F094
:1027D0005FFE0123AB6038BD054CE3691A07FAD5EB
:1027E00063681B07F7D402F0F5FE0823E7E700BF94
:1027F000000C00580D4885460D480E490E4A00232E
:1028000002E0D458C4500433C4188C42F9D30B4AA4
:102810000B4C002301E013600432A242FBD300F012
:10282000E3F803F069FAFEF7FDFBFEE70000032082
:102830000400002098000020988900082C02002045
:10284000D8210020FEE770B50E4615460C46A31BA6
:102850009D4201DC284670BDAFF3008004F8010BF7
:10286000F5E7000008B50A4B1968024609B909499D
:1028700019601868694602448A4206D903F036FA9C
:102880000C2303604FF0FF3008BD1A60FCE700BF67
:1028900054050020D82100204FF0FF3070474FF43E
:1028A00000534B60002070470120704700207047A4
:1028B0004FF0B04382B0DA6C0243DA64DB6C18404C
:1028C0000190019B02B07047F0B587B00746142213
:1028D000002101A803F03FFA0D4C0220FFF7E8FFAA
:1028E0000C4B04EB870433F8175060680195002601
:1028F0000123CDE9023601A90223049300F026FB4F
:1029000032462946606800F0D3FB07B0F0BD00BF37
:1029100004000020B0700008044B054903EB80035D
:1029200031F810105868012200F0C2BB04000020EA
:10293000B0700008044B054903EB800331F8101018
:102940005868002200F0B4BB04000020B0700008FA
:1029500070B586B004460E461422002101A803F08B
:10296000FAF9CCB90420FFF7A3FFD6B91B4B03EB50
:1029700044030125DB88CDE901360223CDE9035369
:10298000174B03EB840401A9206900F0DFFA284605
:10299000FEF7DCFB06B070BD631E012BE5D80820F6
:1029A000E1E7012EF6D10D4D039605EB440301A995
:1029B000DB8801930B4B0293094B03EB84032C44FC
:1029C000186900F0C3FA94F90C40002220460F2148
:1029D00000F0BAF8204600F0EBF8DBE7B070000832
:1029E0000400002000002110214A08B5D2F88830E8
:1029F00043F47003C2F88830002002F065FE68B12D
:102A00004FF0B0421B4B8179C2F89C30D2F89C3019
:102A100023F47C5343EA0123C2F89C304FF0B042C8
:102A2000136843F480331360134B1A6822F00702D3
:102A300042F001021A601A6802F00702012AFAD174
:102A40004FF0B04213689B03FCD5936823F0030357
:102A500043F0020393604FF0B0439A6802F00C0217
:102A6000082AFAD11A6822F001021A6008BD00BFD4
:102A700000ED00E0FECAFECA0040005870470000AA
:102A800070B50F4D2B6806460BB9012070BD00F0E4
:102A900075FB2A684FF47A73B3FBF2F3B0FBF3F0E3
:102AA00000F0A8F804460028EFD10F2EEDD802461A
:102AB00031464FF0FF3000F047F86E602046E5E702
:102AC0002000002010B5032000F02CF80F20FFF7A5
:102AD000D7FF044618B9FFF7D1FF204610BD0124E7
:102AE000FBE70000034A0449136809680B441360BC
:102AF000704700BFD021002020000020014B186843
:102B0000704700BFD0210020014B1868704700BFFC
:102B100020000020024A536843F0010353607047CD
:102B2000002004E0074AD36823F4E0631B041B0C75
:102B300043F0BF63000243F4003300F4E06003435A
:102B4000D360704700ED00E0174B70B5DC68C4F34C
:102B50000224C4F10705042D04F1040328BF042551
:102B60004FF0FF36062B06FA05F38CBF033C00241A
:102B700021EA0303A34006FA04F422EA040400282D
:102B800043EA0403A8BF00F160404FEA0313BCBF4F
:102B900000F00F00054ADBB2AABF00F561401354F4
:102BA00080F8003370BD00BF00ED00E014ED00E0E0
:102BB000002808DB4209012300F01F0003FA00F09F
:102BC000014B43F82200704700E100E000280DDBD4
:102BD0004309012200F01F0002FA00F02033044AEA
:102BE00042F82300BFF34F8FBFF36F8F704700BFD2
:102BF00000E100E00138B0F1807F0AD2064B074ABD
:102C00005860F02182F823100020072298601A6093
:102C100070470120704700BF10E000E000ED00E0C9
:102C2000002809DB4309012200F01F0002FA00F02E
:102C30004033024A42F82300704700BF00E100E041
:102C4000002809DB4309012200F01F0002FA00F00E
:102C50006033024A42F82300704700BF00E100E001
:102C600070B5D0E913456560446D14B1D0E91645DF
:102C70006560D0E9106404F01C050124AC40746068
:102C8000046863608368102B0BBFA260A160E160E1
:102C9000E26070BD10490368426C8B4222F003026F
:102CA00095BF02F180420D4902F50232891898BFA2
:102CB0008264DBB20A4AC264A3F108034FF0140233
:102CC000B3FBF2F34FF0010203F01C0302FA03F32B
:102CD00088BF816403657047070402401C080240F6
:102CE0008008024010B5044600285DD001682F4BD3
:102CF00099424FF014004AD82D4A0A44B2FBF0F230
:102D000092006264A3F207432364022384F825300F
:102D1000D4E90230034320690A680343606903432E
:102D2000A0690343E0690343206A22F4FF4222F0D2
:102D30007002034313430B602046FFF7ABFFA36809
:102D4000A16CB3F5804F04BF002363606268D3B207
:102D50000B60D4E91310013A032A48601FD8154AC2
:102D60001548A0651A44013B9200012103F00303BA
:102D700001FA03F300216265E365116043600020FE
:102D80000123E06384F8240084F8253010BD0B4B48
:102D90000B44B3FBF0F39B006364094BB4E70023DF
:102DA000C4E91533E365EAE70120EFE707040240D1
:102DB000F8FFFDBF3F82001040090240F8FBFDBF55
:102DC0000004024070B590F82450012D044639D01B
:102DD000012580F8245090F82550012D4FF0000671
:102DE0004FF002052CD180F82550C663066835687F
:102DF00025F001053560FFF733FF026B0368BAB1B8
:102E00001A6842F00E021A60A26C1168C90342BF30
:102E1000116841F480711160626D1AB1116841F45A
:102E2000807111601A6842F001021A60002070BDC2
:102E30001A6822F004021A601A6842F00A02E2E7F5
:102E400080F824600220F2E790F82530022B10B5BC
:102E500003D00423C363012010BD03681A6822F065
:102E60000E021A601A6822F001021A60826C13685E
:102E700023F480731360D0E9101303F01C020123C4
:102E800093404B60D0E913325A60436D33B11A68F6
:102E900022F480721A60D0E916325A60012380F859
:102EA0002530836B002480F8244013B198472046D6
:102EB000D2E71846D0E7016C426C036870B402F0A8
:102EC0001C020E681D680424944034420ED015F094
:102ED000040F0BD01A6892065EBF1A6822F0040233
:102EE0001A60036B4C6073B370BC184702249440A3
:102EF000344212D015F0020F0FD01A68950606D48E
:102F00001A6822F00A021A60012380F82530002393
:102F10004C6080F82430C36AE5E7082494403442CA
:102F200011D02C070FD51C6824F00E041C6001235F
:102F300003FA02F24A60C36380F82530002380F868
:102F40002430436BCFE770BC704700002DE9F04F91
:102F5000554AD1F8008000234FF00F0938FA03F4E6
:102F600001D1BDE8F08F012404FA03FA1AEA08053A
:102F700000F08F804C6824F0100BBBF1020F11D1D0
:102F8000DF0800EB870703F0070C3E6A4FEA8C0C62
:102F900009FA0CFE26EA0E0E0E6906FA0CF646EA4F
:102FA0000E063E624FEA430E0327066807FA0EF745
:102FB000FF4304F0030C3E400CFA0EFC0BF1FF3B08
:102FC0004CEA0606BBF1010F066011D8866806EAD6
:102FD000070BCE6806FA0EFC4CEA0B0686604668C4
:102FE00026EA0A0AC4F300169E4046EA0A0646602C
:102FF000C66837408E6806FA0EF63743E600C760AB
:1030000047D523F0030707F1804707F5803703F022
:10301000030CBE684FEA8C0C09FA0CFEB0F1904F1D
:1030200026EA0E0E37D0214EB04236D006F5806625
:10303000B04234D006F58066B04232D006F58066E4
:10304000B04214BF0726042606FA0CF646EA0E061E
:10305000BE60D2F88060EF4314F4803F0CBF3E4066
:103060002E43C2F88060D2F8846014F4003F0CBF95
:103070003E402E43C2F88460166814F4801F0CBFD3
:103080003E402E4316605668A40254BF3E402E4375
:103090005660013362E70026D6E70126D4E7022610
:1030A000D2E70326D0E700BF00080058000400481C
:1030B0000AB181617047816270470000024A13685B
:1030C00043F4807313607047000400584FF0B0431E
:1030D000186800F0F000B02828BFB020704700004A
:1030E0004FF0B04208B5936813F00C0307D1FFF717
:1030F000EDFF1F4BC0F3031053F8200008BD042B55
:1031000033D0082B07D113681A4813F4801F1A4BC9
:1031100008BF1846F2E7D36803F00303022B22D05E
:10312000032B18D11368134813F4801F124B18BFD8
:1031300003464FF0B042D068D168D268C0F3062091
:103140005843C1F302130133B0FBF3F0530F0133C3
:10315000B0FBF3F0D2E7FFF7B9FF054BC0F3031064
:1031600053F82030E5E7034BE3E70248C6E700BF2A
:10317000C07000080024F4000048E80108B5FFF71B
:10318000AFFF4FF0B043044A9B68C3F3031352F8F8
:103190002330B0FBF3F008BD0071000808B5FFF75D
:1031A000EDFF4FF0B043054A9B68C3F3022352F88A
:1031B000233003F01F03D84008BD00BFA0710008F2
:1031C00008B5FFF7DBFF4FF0B043054A9B68C3F338
:1031D000C22352F8233003F01F03D84008BD00BFBC
:1031E000A07100087047026838B5D36823F0A003C7
:1031F000D3600446FFF782FC05462368DB689B0624
:1032000001D5002038BDFFF779FC401BB0F57A7F6F
:10321000F3D90320F6E738B50368DA6852060446A6
:1032200001D5002038BD4FF0FF32DA60FFF766FCB1
:1032300005462368DB685B06F3D4FFF75FFC401BA1
:10324000B0F57A7FF5D90320ECE738B50446D8B15C
:1032500090F8213003F0FF021BB980F82020FFF71F
:10326000C1FF022384F821302368CA225A62532204
:103270005A622046FFF7CFFF2368054630B1FF2290
:103280005A62042384F82130012538E09A682069C5
:1032900022F4E00222F040029A60626899680243D8
:1032A000A06902430A439A60E2681A611A69A16838
:1032B000606942EA01421A61DA6822F08002DA604B
:1032C000DA6C22F00302DA64E269D96C02430A4341
:1032D000DA649B689B060CD42046FFF784FF40B15C
:1032E0002368FF225A62042384F8213084F8205096
:1032F000CAE72368FF225A62012384F82130284656
:1033000038BD0268136823F490731360936823F048
:10331000805323F0010393602023C0F884300023FE
:10332000C3667047D0F88430202B10B568D10029CF
:1033300064D0002A62D090F87C30012B60D0012349
:1033400080F87C3083688165B3F5805F4FF00001C1
:10335000A0F85C20A0F85E20C1662ED1016951BBA7
:1033600040F2FF11A0F860100021C0F8881022215F
:10337000C0F8841001688C6844F001048C60446ECD
:10338000B4F1005F29D1B0F86840944225D8B3F574
:10339000805F20D10369F3B91A4B0A68C36642F40F
:1033A0008072002380F87C300A608A6842F0805284
:1033B0008A60184610BDFF21D4E723B901690029AE
:1033C000F9D07F21CEE7B3F1805FCBD1016900292D
:1033D000F7D03F21C6E70C4BDFE7B3F5805F0BD199
:1033E00003694BB9094B0A68C36642F49072002323
:1033F00080F87C300A60DCE7054BF4E70120D9E770
:103400000220D7E73D360008993500083F3500080F
:10341000E3340008F8B504461346D4F88070202F32
:103420003AD161B35AB394F87C20012A34D0606F4A
:10343000A4F85630012500262122C4F8886084F8BB
:103440007C502165A4F85430C4F88020C8B1DFF85E
:103450004CC02268C0F82CC0DFF844C0C0F830C0AF
:10346000DFF840C02832C0E90DC6FFF7ABFC40B121
:103470001023C4F8883084F87C60C4F88070012080
:1034800009E0236840221A629A68002042F0800214
:1034900084F87C009A60F8BD0220FCE7A93400089B
:1034A000D9340008DF36000808B50368826A1B6853
:1034B00013F020030BD1A2F8563013689A6822F05B
:1034C00080029A601A6842F040021A6008BD1046F5
:1034D000FDF792FDFAE7704708B5806AFFF7FBFF3A
:1034E00008BDD0F884100268222910B522D1526A92
:1034F00090F86040816D22400A70826D01328265D1
:10350000B0F85E20013A92B2A0F85E20B0F85E20DA
:1035100092B272B901680C6824F490740C608C68E3
:1035200024F001048C602021C0F88410C266FDF7ED
:103530004DFD10BD936943F008039361F9E7D0F89E
:1035400084100268222910B520D1546AB0F86010A6
:103550000C40816D21F8024B8165B0F85E10013995
:1035600089B2A0F85E10B0F85E1089B269B914682B
:1035700024F490741460946824F001049460202270
:10358000C0F88420C166FDF721FD10BD936943F0AA
:1035900008039361F9E70000D0F88430222B2DE96D
:1035A000F04104463FD1B0F86060B0F86850214F58
:1035B0004FF02008A5B9B4F85E309BB273B1B4F8EF
:1035C00068209A420AD923689A6822F080529A6049
:1035D000194AE2661A6842F020021A60BDE8F081DA
:1035E0002368A26D5B6A33401370A36D0133A3653A
:1035F000B4F85E30013B9BB2A4F85E30B4F85E30A4
:103600009BB26BB92268116821F4807111609168D6
:10361000394091602046C4F88480E366FDF7D6FC0B
:10362000013DADB2C6E70268936943F008039361B8
:10363000D4E700BFFEFFFFEFE3340008D0F884308A
:10364000222B2DE9F04104463DD1B0F86060B0F87E
:103650006850204F4FF02008A5B9B4F85E309BB2F7
:1036600073B1B4F868209A420AD923689A6822F0A4
:1036700080529A60184AE2661A6842F020021A6084
:10368000BDE8F0812368A26D596A314022F8021B1F
:10369000A265B4F85E20013A92B2A4F85E20B4F8B4
:1036A0005E2092B262B9196821F48071196099683C
:1036B000394099602046C4F88480E266FDF786FCB4
:1036C000013DADB2C8E70268936943F00803936116
:1036D000D6E700BFFEFFFFEF3F3500087047816A65
:1036E0000B68D1F88020D1F8840010B59C682406BE
:1036F0000FD5212A0DD10022A1F856201A6822F0F8
:10370000C0021A609A6822F400029A602022C1F86E
:1037100080209B685B0607D5222805D10023A1F8ED
:103720005E300846FFF7EDFDD1F8883043F0100316
:10373000C1F888300846FFF7D1FF10BD0268D36991
:10374000116870B540F60F052B42044690680BD106
:103750009E0640F183808D0601D4C6007ED5E36EBF
:10376000002B75D020466DE0584E064002D1584DD2
:10377000294273D0DD0709D5CD0507D5012515628E
:10378000D4F8885045F00105C4F888509D0709D544
:10379000C50707D502251562D4F8885045F0040501
:1037A000C4F888505D0709D5C50707D504251562FB
:1037B000D4F8885045F00205C4F888501D070AD592
:1037C0008D0600D43EB108251562D4F8885045F026
:1037D0000805C4F888501E050AD54D0108D54FF4D8
:1037E00000651562D4F8882042F02002C4F88820D1
:1037F000D4F8882062B39E0607D58D0601D4C00098
:1038000003D5E36E0BB1204698472268D4F8885060
:1038100092685106204602D415F0280519D0FFF70A
:1038200070FD23689A6852060FD59A68A06F22F03F
:1038300040029A6048B1274B8363FFF705FB38B11C
:10384000A06F836BBDE8704018472046FFF746FF26
:1038500070BDFFF743FFC4F88850F9E7DE0209D5D1
:10386000450207D54FF4801320461362BDE870402F
:1038700000F0F2BD1E0605D50D0601D4000201D5EB
:10388000236F6DE75E060ED54D060CD5136823F049
:10389000400313602023C4F88030002323672046B0
:1038A000FDF7AAFBD4E7180206D54A0004D5204646
:1038B000BDE8704000F0D2BDDB01C9D50029C7DAF0
:1038C0002046BDE8704000F0C8BD00BF01000010F8
:1038D00020010004D938000808B5806A0023A0F848
:1038E0005E30A0F85630FFF7F9FE08BD000000007A
:1038F0000368C16982682DE9F048044600691D68C3
:10390000024360690243606E0A430243AC482840A8
:1039100002431A605A68E06822F4405202435A6037
:10392000A84AA06993421CBF226A10439A6822F0F9
:103930006E4222F4306202439A60DA6A606A22F0D0
:103940000F020243DA62A04A93421AD14FF0B04309
:103950009E4AD3F8883003F00303B1F5004FD35CDF
:1039600003F1FF3340F03483072B00F22E83DFE8AE
:1039700013F02A0251022C0398022C032C032C036F
:10398000B102904A934240F0EF834FF0B043D3F836
:10399000883003F44063B3F5806F00F0AC800AD840
:1039A000C3B3012200234FF00111C4E91A132367A6
:1039B0001046BDE8F088B3F5006F65D0B3F5406FF1
:1039C000EFD1002800F0E780012800F0E88002280D
:1039D00000F0E980032800F0EA80042800F0EB8082
:1039E000052800F00B81062800F00C81072800F064
:1039F0000D81082800F00E81092800F00F810A28A7
:103A000000F010810B284FF0080114BF4FF4004064
:103A1000802058E0FFF7C2FB636AFBB1012B1FD087
:103A2000022B1FD0032B1FD0042B1FD0052B1FD020
:103A3000062B1FD0072B1FD0082B1FD0092B1FD000
:103A40000A2B1FD00B2B14BF01234FF480730021CE
:103A5000B0FBF3F0002836D10246A3E70123F6E7D6
:103A60000223F4E70423F2E70623F0E70823EEE756
:103A70000A23ECE70C23EAE71023E8E72023E6E734
:103A80004023E4E78023E2E700286BD001286CD0D4
:103A900002286DD003284FF002016CD004286CD0AE
:103AA00005286CD006286CD007286CD008286CD06C
:103AB00009286CD00A286CD0454B4FF224420B28C1
:103AC00014BF18461046626802EB420383423FF679
:103AD00068AFB0EB023F3FF664AF082900F2708197
:103AE000DFE811F0A4006E01E0006E011C016E0120
:103AF0006E016E013501FFF7F3FA636AE3B1012B42
:103B00001CD0022B1CD0032B1CD0042B1CD0052B4B
:103B10001CD0062B1CD0072B1CD0082B1CD0092B2B
:103B20001CD00A2B1CD00B2B14BF01234FF4807325
:103B3000B0FBF3F004218DE70123F9E70223F7E757
:103B40000423F5E70623F3E70823F1E70A23EFE769
:103B50000C23EDE71023EBE72023E9E74023E7E719
:103B60008023E5E702211A48ADE702211948AAE7B8
:103B700001461948A7E71948A5E71948A3E71948D6
:103B8000A1E719489FE719489DE719489BE719489D
:103B900099E7194897E708214FF4004093E7082177
:103BA0004FF480408FE708214FF400508BE7082145
:103BB00041F2555087E708214FF4805083E700BF5A
:103BC000F369FFCF0080004000380140C071000859
:103BD0000024F40000127A0000093D00AAB0280079
:103BE00080841E00006A18005558140040420F00DF
:103BF00020A1070090D0030048E80100082140F60A
:103C0000CC4060E7082140F6AA205CE708214FF489
:103C1000006058E701464FF4806054E708214FF4F4
:103C2000007050E708214FF480704CE7FFF7B6FAB8
:103C3000636A002B00F08980012B72D0022B72D0B6
:103C4000032B72D0042B72D0052B72D0062B72D0AE
:103C5000072B72D0082B72D0092B72D00A2B72D08E
:103C60000B2B72D14FF4807200230021FCF7E0FA95
:103C700065680F0247EA10670602680816EB000B3A
:103C800047F1000C2A46002358466146FCF7D0FA5B
:103C90000022A54BA0F5407199423FF682AE236801
:103CA000D8607FE6636A002B36D0012B16D0022B3A
:103CB00016D0032B16D0042B1ED0052B1ED0062B9E
:103CC0001ED0072B20D0082B20D0092B20D00A2B68
:103CD00020D00B2B20D1954E002706E0944EFBE719
:103CE000944EF9E78CA7D7E90067550870194FF093
:103CF000000347F10001C9E78F4EEDE78F4EEBE778
:103D000087A7D7E90067F0E78D4EE5E78D4EE3E73B
:103D10008D4EE1E78D4EDFE78D4EDDE7FFF7E0F9F1
:103D200086E70222A0E704229EE706229CE70822FB
:103D30009AE70A2298E70C2296E7102294E72022BD
:103D400092E7402290E780228EE701228CE7636AA7
:103D50009BB3012B16D0022B17D0032B18D0042BAA
:103D600018D0052B19D0062B19D0072B19D0082BEA
:103D70001AD0092B1BD00A2B1CD00B2B1DD14FF4B2
:103D80000046A9E74FF48006A6E74FF40016A3E724
:103D9000704EA1E74FF480169EE76F4E9CE76F4E82
:103DA0009AE74FF4002697E74FF4802694E74FF404
:103DB000003691E74FF480368EE74FF400068BE72C
:103DC0000122002065E7FFF7FBF9616A00296BD04B
:103DD00001296BD002296BD003296BD004296BD049
:103DE00005296BD006296BD007296BD008296BD029
:103DF00009296BD00A296BD00B2914BF01224FF47B
:103E000080726168B0FBF2F24B0803EB4203B3FB34
:103E1000F1F31FE078B301282FD002282FD0032818
:103E20002FD004282FD005282FD006282FD00728E0
:103E30002FD008282FD009282FD00A282FD0434B65
:103E4000474A0B2814BF18461046636800EB53001E
:103E5000B0FBF3F39BB20022A3F110004FF6EF7119
:103E600088423FF69EAD23F00F012068C3F3420362
:103E70000B43C36096E53548E7E72C48E5E739484A
:103E8000E3E73948E1E73948DFE73948DDE7394812
:103E9000DBE73948D9E73948D7E73948D5E7394822
:103EA000D3E7FFF71DF990E70122AAE70222A8E76E
:103EB0000422A6E70622A4E70822A2E70A22A0E736
:103EC0000C229EE710229CE720229AE7402298E7E6
:103ED000802296E7002857D0012858D0022859D0D0
:103EE00003285AD004285BD005285CD006285DD072
:103EF00007285ED008285FD0092860D00A2861D042
:103F00000B2814BF4FF480334FF48073606803EBC9
:103F10005003B3FBF0F39DE700AAB02800000000B7
:103F20000055581400000000FFFC0F000024F400AE
:103F30000000127A0000093D0080841E00006A180B
:103F40000040420F0020A1070090D0030048E80184
:103F5000000024F40055150000CC0C0000AA0A0053
:103F600048E8010000127A005461510000093D0048
:103F700000D43000AAB0280080841E0040420F0008
:103F800020A1070090D003004FF48033BEE74FF428
:103F90000043BBE74FF48043B8E742F6AA23B5E7F6
:103FA0004FF40053B2E741F69813AFE741F2545390
:103FB000ACE74FF48053A9E74FF40063A6E74FF452
:103FC0008063A3E74FF40073A0E70122002343E7D7
:103FD000072B00F2CD80DFE803F0042ACB6DCBCBBA
:103FE000CB86FFF7EDF8636A002B66D0012B66D015
:103FF000022B66D0032B66D0042B66D0052B66D02F
:10400000062B66D0072B66D0082B66D0092B66D00E
:104010000A2B66D00B2B14BF01234FF48073626808
:10402000B0FBF3F303EB5203B3FBF2F320E058B31E
:1040300001282BD002282BD003282BD004282BD0EA
:1040400005282BD006282BD007282BD008282BD0CA
:1040500009282BD00A282BD0474B4FF224420B289B
:1040600014BF18461046636800EB5300B0FBF3F32F
:104070009BB20022A3F110004FF6EF7188423FF689
:1040800090AC2168CB608DE43B48ECE73B48EAE725
:104090003B48E8E73B48E6E73B48E4E73B48E2E7E4
:1040A0003B48E0E73B48DEE73B48DCE73B48DAE7F4
:1040B0003B48D8E7FFF714F895E70123AFE7022361
:1040C000ADE70423ABE70623A9E70823A7E70A2304
:1040D000A5E70C23A3E71023A1E720239FE74023B4
:1040E0009DE780239BE7F0B101281FD0022820D054
:1040F000032821D0042822D0052823D0062824D044
:10410000072825D0082826D0092827D00A2828D013
:104110000B2814BF4FF400438023606803EB500367
:10412000B3FBF0F3A4E74FF40043F6E74FF480430A
:10413000F3E74FF40053F0E741F25553EDE74FF446
:104140008053EAE740F6CC43E7E740F6AA23E4E7EA
:104150004FF40063E1E74FF48063DEE74FF4007350
:10416000DBE74FF48073D8E7B1F5004F3FF42DAF94
:10417000012200237EE700BF0024F40000127A0031
:1041800000093D00AAB0280080841E00006A1800C3
:104190005558140040420F0020A1070090D00300A2
:1041A00048E80100836ADA0710B506D50168C46AD9
:1041B0004A6822F4003222434A609C0706D501680F
:1041C000046B4A6822F4803222434A60590706D5BC
:1041D0000168446B4A6822F4802222434A601A072D
:1041E00006D50168846B4A6822F4004222434A6083
:1041F000DC0606D50168C46B8A6822F4805222432B
:104200008A60990606D50168046C8A6822F4005217
:1042100022438A605A060FD50168446C4A6822F42A
:1042200080122243B4F5801F4A6005D14A68846C2D
:1042300022F4C00222434A601B0606D50268C16C04
:10424000536823F400230B43536010BD2DE9F04164
:10425000069D04460F46164698462168CA6937EA05
:1042600002030CBF01220022B24201D000201AE05A
:10427000681CF3D0FEF742FCA0EB0800A8422068BF
:10428000036800D88DB923F4D0730360836823F0EA
:10429000010383602023C4F88030C4F884300023F5
:1042A00084F87C300320BDE8F0815A07D5D5C36976
:1042B0001B05D2D54FF400630362036823F4D07367
:1042C0000360836823F0010383602023C4F88030F7
:1042D000C4F88430C4F88830E1E72DE9F743984604
:1042E000D0F88030202B04460E4691464FD100294D
:1042F0004BD0002A49D090F87C30012B47D00123C5
:1043000080F87C3000252123C0F88850C0F8803028
:10431000FEF7F4FBA368A4F85490B3F5805F07465A
:10432000A4F8569003D123690BB935461E460023E5
:1043300084F87C30B4F85620CDF8008092B23B4629
:1043400042B940212046FFF781FF48B92023C4F835
:10435000803006E0002280212046FFF777FF18B169
:10436000032003B0BDE8F08322685EB935F8023B54
:10437000C3F308039362B4F85630013B9BB2A4F830
:104380005630D7E716F8013BF4E70120E9E70220B1
:10439000E7E773B504460026C0F88860FEF7AEFB79
:1043A00023681B681A07054617D423681B685B0738
:1043B0000AD56FF07E43009300222B464FF4800114
:1043C0002046FFF743FFA0B920230020C4F8803027
:1043D00084F87C00C4F884300CE06FF07E430093D6
:1043E000324603464FF400112046FFF72FFF002806
:1043F000DBD0032002B070BD10B5044650B3D0F836
:1044000080301BB980F87C30FCF7D0FC2268242374
:10441000C4F88030136823F0010313602046FFF7CF
:1044200067FA012816D0A36A13B12046FFF7BAFE37
:1044300023685A6822F490425A609A6822F02A024D
:104440009A601A6842F0010220461A60BDE81040E6
:10445000FFF79FBF012010BD7047704770470000F5
:104460001FB54378FF2B2CD1B0F8032040F6014351
:104470009A4226D11449B0F807208B8802339A4219
:104480000FD1437BDB0708D500238DF80030684649
:10449000FEF76AF8012004B010BD01248DF8004039
:1044A000F5E74B8801339A420BD103238DF8003096
:1044B000B0F80B308DF808300D3001906846FEF7EB
:1044C00053F80020E7E700BFD80100202DE9F047AE
:1044D0002548264CDFF8A480DFF8A4A0DFF8A490DC
:1044E0008AB000F08FF8224A224B23490094CDE98C
:1044F00006234FF66063CDE90813012206A90623BF
:10450000022000F08FFA4FF66163CDE9088323465D
:10451000012533F8020B05930A2700260623CDE96F
:10452000003606AACDE90375029514230221CDE9D0
:1045300006A900F0C5FA34F8040B01964FF6626341
:10454000099312230093CDE90454CDE902571423B3
:1045500006AA0221CDE906A9CDF8208000F0B0FA24
:104560000AB0BDE8F08700BF61440008D801002010
:104570008FE5B3D52E7F4A982A487ACC4145228EC2
:1045800019ED82AEED214C9D704770477047704722
:104590007047704770477047704770477047704763
:1045A00070477047704708B5FFF7EEFFFFF78EFFC3
:1045B000FFF7EBFFFFF7EAFFFFF7E9FFFFF7E8FF81
:1045C000FFF7E7FFFFF7E6FFFFF7E5FFFFF7E4FF81
:1045D000FFF7E3FFFFF7E2FFFFF7E1FFFFF7E1FF80
:1045E000FFF7DEFFFFF7DEFF08BD000008B5044B54
:1045F00000221A7783F82420FFF7D5FF08BD00BFFB
:10460000E0010020034A137F42F8230001331377AF
:10461000704700BFE0010020044A92F8243002EB0A
:1046200083010133086282F824307047E0010020E2
:10463000F8B54378FF2B044606D1B0F8033003F4F5
:104640007F43B3F5406F04D02046BDE8F840FCF747
:1046500085BF104E00253746327FEBB29A4206D90D
:1046600056F823302046984701350028F4D000251D
:1046700097F82420EBB29A42E6D907EB8303204651
:104680001B6A984701350028F2D0023818BF012074
:10469000F8BD00BFE001002010B5002488B018224A
:1046A000214602A88DF8074000F02DFC084B02932C
:1046B0000DF1070306932146012302A8079300F09A
:1046C00069FDA042ACBF9DF80700FF2008B010BDF7
:1046D0003F0081002DE9F04FCBB04FF000099DF86D
:1046E0005C410094009D9DF854618DF8280005F10F
:1046F00009070AAC3744E519ADF82910ADF82B20AD
:104700008DF82D3032469DF85031569901950CA800
:1047100006F1080A8DF82E308DF82F608DF80F9075
:1047200000F0EFFB009B04F80A3004EB0A0B1A467A
:1047300058990BF1010000F0E4FB009B019A093647
:1047400033441D46BDF86431E353BDF868315380EE
:104750004946182204A800F0D6FB0B4B04930DF138
:104760000F0801230435494604A80694CDE90758EB
:10477000099300F00FFD4845ACBF98F80000FF20FA
:104780004BB0BDE8F08F00BF3F00830070B5C8B0EC
:1047900000258DF820001822294602A88DF8075020
:1047A00000F0B1FB094B02930DF10704012308AEA1
:1047B000294602A80496CDE90534079300F0EAFCE7
:1047C000A842ACBF2078FF2048B070BD3F008500F4
:1047D00070B5C8B000268DF823309DF830318DF8C3
:1047E00024309DF834318DF825309DF838318DF81E
:1047F00026304F9B8DF820008DF821108DF8222057
:10480000CDF8273018229DF840318DF82B303146F5
:1048100002A88DF8076000F076FB0A4B02930DF1B9
:1048200007050C23CDE9053508AC0123314602A864
:104830000494079300F0AEFCB042ACBF2878FF2090
:1048400048B070BD3F0086002DE9F041C8B08046F9
:104850000F4616460021072268461D4600F053FB0E
:104860001822002102A88DF820808DF821708DF883
:10487000226000F048FB144B02930323059308AC1D
:104880000723002102A80494CDF818D0079300F064
:1048900081FC002816DB9DF8000080B9009A9DF885
:1048A0000330C2F30F222A809DF8042043EA02233A
:1048B0004E9A1380019B4F9AC3F30F23138048B085
:1048C000BDE8F081FF20FAE73F008A0010B5002420
:1048D00088B01822214602A88DF8074000F013FB8B
:1048E000084B02930DF1070306932146012302A80A
:1048F000079300F04FFCA042ACBF9DF80700FF20DB
:1049000008B010BD3F00920070B5C8B00026ADF8E9
:104910002000ADF822108DF824203146182202A87C
:104920008DF825308DF8076000F0EDFA0B4A0F2363
:104930000DF10705CDE902230623CDE9053508ACC5
:104940000123314602A80494079300F023FCB042EF
:10495000ACBF2878FF2048B070BD00BF3F00970073
:1049600070B5C8B008AC0026ADF82000ADF8221034
:104970008DF82420194606220DF125008DF80760D8
:1049800000F0BFFA9DF83031E372BDF83431A381F5
:10499000BDF83831E381BDF83C312382BDF84031A8
:1049A0006382BDF84431A3823146BDF84831E382C9
:1049B000182202A800F0A7FA0A4A04940F230DF166
:1049C0000705CDE902231823CDE90535314601233A
:1049D00002A8079300F0DEFBB042ACBF2878FF20AE
:1049E00048B070BD3F009C0010B5002488B018226C
:1049F000214602A88DF8074000F085FA084B029383
:104A00000DF1070306932146012302A8079300F046
:104A1000C1FBA042ACBF9DF80700FF2008B010BD4D
:104A20003F0001012DE9F04F0128C9B004468A4634
:104A30009146984639D002280CBF1127012701ADB5
:104A400003220021284608AE00F05DFA012C3470E4
:104A50002DD0022C2DD1102406EB070B22465146F7
:104A60000DF1210000F04DFA06F807901822002100
:104A70008BF8018002A800F046FA104B0293033431
:104A80000323002102A80496CDE90545079300F011
:104A900081FB00280FDB287820B92B68529AC3F3DA
:104AA0000F23138049B0BDE8F08F0327C7E7022426
:104AB000D2E74720F6E7FF20F4E700BF3F000201FE
:104AC0002DE9F0430129C9B006460C4691469846A7
:104AD00046D002290CBF1327032708AD032200216B
:104AE00001A800F010FA012C2E80AC703AD0022CF4
:104AF0003AD11024EE19224649460DF1230000F068
:104B000000FA9DF8403125F80780B3709DF84431D4
:104B1000F3709DF8483133719DF84C3173719DF8F5
:104B20005031B3711822002102A800F0ECF90A34C8
:104B30000F4B02930594032301AC002102A80495B6
:104B40000694079300F026FB00280FDB207820B99D
:104B50002368559AC3F30F23138049B0BDE8F0834F
:104B60000527BAE70224C5E74720F6E7FF20F4E768
:104B70003F000401F0B5C9B00027ADF82000ADF842
:104B800022108DF824204E998DF825301A460DF10B
:104B900026001C468DF8077000F0B3F9182239463C
:104BA00002A800F0B0F90A4B02930DF107060123A9
:104BB00008AD0634394602A80495CDE905460793A9
:104BC00000F0E8FAB842ACBF3078FF2049B0F0BD41
:104BD0003F00060170B5C8B00025ADF82000294699
:104BE000182202A88DF8075000F08DF90B4A0F2308
:104BF0000DF10704CDE902230223CDE9053408AE07
:104C00000123294602A80496079300F0C3FAA8429C
:104C1000ACBF2078FF2048B070BD00BF3F0012013C
:104C200070B5C8B00026ADF82000ADF82210ADF880
:104C300024203146182202A88DF8076000F063F99D
:104C40000B4A0F230DF10705CDE902230623CDE919
:104C5000053508AC0123314602A80494079300F0FF
:104C600099FAB042ACBF2878FF2048B070BD00BFB1
:104C70003F00150170B5C8B00026ADF82000ADF8B2
:104C80002210ADF824203146182202A88DF80760C2
:104C900000F039F90B4A0F230DF10705CDE9022386
:104CA0000623CDE9053508AC0123314602A804945A
:104CB000079300F06FFAB042ACBF2878FF2048B0ED
:104CC00070BD00BF3F00170170B5C8B00025ADF83A
:104CD0002000ADF822101822294602A88DF80750AE
:104CE00000F011F90B4A0F230DF10704CDE902235F
:104CF0000423CDE9053408AE0123294602A8049611
:104D0000079300F047FAA842ACBF2078FF2048B0D4
:104D100070BD00BF3F001801F0B5C9B00027ADF865
:104D20002000ADF822100DF12500194614468DF82B
:104D300024208DF8077000F0E4F83946182202A804
:104D400000F0E1F80B4A0F230DF10706CDE902232D
:104D500008AD01230534394602A80495CDE905467E
:104D6000079300F017FAB842ACBF3078FF2049B083
:104D7000F0BD00BF3F00210170B5C8B00025ADF8FF
:104D80002000ADF822101822294602A88DF80750FD
:104D900000F0B9F80B4A0F230DF10704CDE9022307
:104DA0000423CDE9053408AE0123294602A8049660
:104DB000079300F0EFF9A842ACBF2078FF2048B07D
:104DC00070BD00BF3F002201F0B5C9B00027ADF8AB
:104DD0002000ADF822100DF12500194614468DF87B
:104DE00024208DF8077000F08CF81822394602A8AC
:104DF00000F089F80A4B02930DF10706012308AD74
:104E00000534394602A80495CDE90546079300F01C
:104E1000C1F9B842ACBF3078FF2049B0F0BD00BF47
:104E20003F002301F0B5C9B00C46002611468DF8AD
:104E3000200022460DF122008DF821408DF80760F8
:104E400000F05FF81822314602A800F05CF80A4B27
:104E500002930DF10705012308AF0234314602A881
:104E60000497CDE90545079300F094F9B042ACBF33
:104E70002878FF2049B0F0BD3F000C0070B5C8B0E5
:104E800000258DF820008DF821101822294602A84F
:104E90008DF8075000F037F80A4B02930DF1070424
:104EA0000223CDE9053408AE0123294602A8049661
:104EB000079300F06FF9A842ACBF2078FF2048B0FC
:104EC00070BD00BF3F000F0010B5002488B018224D
:104ED000214602A88DF8074000F015F84FF00313A3
:104EE00002930DF1070306932146012302A80793BD
:104EF00000F050F9A042ACBF9DF80700FF2008B0B9
:104F000010BD00F01DBF00F026BF38B505460024D7
:104F1000A0B229182B5C013403B938BD4FF0FF3320
:104F200001220020FBF7E2FEF2E7000030B5154A4F
:104F300089B005460C4610685168127A6B4603C367
:104F400000211A700DF10900152200F004FF0A205B
:104F5000B4FBF0F300FB134430338DF80230B5FBA3
:104F6000F0F300FB135030308DF80600303330344E
:104F700068468DF803408DF80530FFF7C6FF09B08D
:104F800030BD00BFC4710008F8B5094F06460024C3
:104F90000D46A3B29D4200D8F8BD3119C9B2012017
:104FA000FFF7C4FF3846FFF7B0FF0134F1E700BF59
:104FB0007986000808B50448FFF7A7FF01210846D5
:104FC000BDE80840FFF7B2BF7D8600080CB4F7B516
:104FD0002C4C089D2378012B15D102232370FFF759
:104FE000A5FF09AB00220193164613462978264FE8
:104FF000184669B93B4407F1680083F86810FFF769
:1050000084FF0123237003B0BDE8F04002B0704775
:105010003844013380F86810DBB2297822B9253989
:105020004A424A410135E1E7642915D8632919D27A
:105030005829F7D13B44154983F86860019B1A1D34
:10504000019201F185001A6800F01EFF1048FFF779
:105050005CFF00231A46E5E77529EBD07829E9D0F3
:105060007329DFD13B4407F1680183F86860019B35
:105070001A1D01921A6807F1ED0000F005FF07F113
:10508000ED00E4E7280000205C050020C4050020B6
:10509000490600201FB500F10C026B4621214FF696
:1050A000664000F057F99DF80E0005B05DF804FB6E
:1050B00008B5437A0E3B012B014607D8074800F09C
:1050C0002CFB0020BDE80840FCF754BC044800F06D
:1050D00024FB0348BDE80840FCF748BC80100020D2
:1050E000080200207FB50F4C4B68A0620D4604F10A
:1050F0000C00A36000F0AEF82E680B4D204600F0C7
:10510000F3FA2846AE6000F0EFFA01232B73E36850
:105110002BB104A8054A029640F8102D984704B018
:1051200070BD00BF8010002008020020B1500008B0
:105130001FB5164C204600F0DAFAC0B9237BB3B194
:1051400001A9204600F000FB114B9A6A01233AB1F5
:1051500004A8019900F8083D039190479DF8083094
:105160002373237B01996BB1084600F013FA0748BB
:1051700000F0BDFA20B9237B13B10448FCF7F6FB1D
:1051800004B010BD014800F0BCFAF0E708020020AE
:10519000801000202DE9F7432C4FBB6805460BB16A
:1051A000002098476C882B88DFF8A090C4F309048E
:1051B00044EA8324264BD5E902129868A4B2C2724D
:1051C000A0F80940D2B20C3000F0BAFD0021FB6912
:1051D0000846984748F2E800FCF7CFFB4FF000087C
:1051E000484600F084FA50B1B8F1000FF2D0BB6825
:1051F0000BB101209847002003B0BDE8F08301A95E
:10520000484600F0A1FA019E737A0F2B0CD1B6F834
:105210000D30A34202BF2B69F27A1A70337B002B48
:10522000DED04FF00108DBE7B389A3420CD1B27A9C
:105230006B692869033AD2B29A42A8BF1A466A61DA
:1052400006F10E0100F07CFDF37AE8E78010002003
:1052500008020020024B0360024B0361704700BF4D
:10526000395400087954000810B5054C0146204611
:1052700000F053FA2046BDE81040FBF7CCB900BF60
:10528000180200200020FBF7CAB90000034B0120E0
:105290001872034B1B6803B11847704718020020AF
:1052A000AC1000207FB50E4C4B6820620D46201DCF
:1052B000236000F07DF82E680A4D2846EE6000F06D
:1052C00013FAFFF7E3FF01232B74636833B1064A37
:1052D0000192064A0396029201A8984704B070BD55
:1052E000AC10002018020020855200086952000806
:1052F0001FB5164C204600F0FAF9C0B9237CB3B1B3
:1053000001A9204600F020FA114B1A6A01233AB194
:1053100004A8019900F8083D039190479DF80830D2
:105320002374237C01996BB1084600F033F90748D8
:1053300000F0DDF920B9237C13B10448FBF76BF9C9
:1053400004B010BD014800F0DCF9F0E718020020BD
:10535000AC1000202DE9F047134C98462368814695
:105360000F4692460BB100209847104DE8683A4628
:105370000026A0F80990C77251460C302E7200F03A
:10538000DFFC636931463046984748F2E800FBF796
:1053900049F9E9688A7808F10800033200F0D0FC86
:1053A000BDE8F047FFF772BFAC10002018020020E4
:1053B000024B0360024B0361704700BFC9540008F1
:1053C000FD54000837B5094C094D084800F08FF925
:1053D00008B103B030BD01A9204600F0B5F92B6932
:1053E0000199186900F099F9EFE700BFD01000208B
:1053F00000000320FDF71AB90D4B0E4A03F12001FE
:105400001360516003F13001916003F13C011162BE
:1054100003F14401D16003F14C01116103F1680112
:10542000516103F16C0178339161D361FDF716B9D5
:10543000300103200000032038B50C4D04462846F7
:1054400000F052F90A4BA2685B681A60E268DA6001
:1054500005F10802C3E90125FDF720F9054B226893
:105460009A606268DA60002038BD00BF240A032019
:1054700000000320D010002008B5044B5B681B68B7
:1054800001221A72FDF712F9002008BD0000032066
:1054900037B5084C084D074800F029F908B103B0AA
:1054A00030BD204601A900F04FF9AB68019898473C
:1054B000F1E700BF240A0320D0100020014BDB6875
:1054C000184700BFD010002038B5094D04462846C3
:1054D00000F00AF9074BA268DB68C3E90025FDF775
:1054E000EDF8054B22681A6162685A61002038BDE8
:1054F0003C0A032000000320D010002008B5044B14
:10550000DB681B6810221A72FDF7E0F8002008BD66
:1055100000000320024BDA68024B10681B69184731
:1055200000000320D010002037B5084C084D074874
:1055300000F0DDF808B103B030BD204601A900F04D
:1055400003F96B6901989847F1E700BF3C0A032013
:10555000D010002038B50C4D0446284600F0C4F8A1
:105560000A4800F0C1F80A4BA2681B699A60E26819
:10557000C3E9032522681A6062685A6022695A6189
:1055800062699A6138BD00BFB4010320D0100020C9
:105590000000032008B50146034800F0BEF80348A8
:1055A000BDE80840FDF7E0B8D0100020C553000862
:1055B00010B5054C204600F097F8044B5B691C6061
:1055C000BDE81040FDF7E6B8BC0103200000032051
:1055D0007047000013B5074C064800F088F808B182
:1055E00002B010BD204601A900F0AEF80198FFF707
:1055F000EFFFF1E7BC01032013B5EFF3108472B69F
:105600000C480DF1060100F0C4F90DF1060109483E
:1056100000F020FA40B184F31088074ABDF8061064
:10562000FBF706F802B010BD044B01221A7084F398
:105630001088F7E7E8100020F95500082A0000203C
:1056400007B5FAF7F2FF022300934FF480520023CC
:105650000349044800F084F803B05DF804FB00BF80
:1056600008110020E810002070B51446EFF31085F3
:10567000431C1BD0013801281AD892B172B696B2D9
:10568000012332460C4800F07FF860B10B4B1A78CA
:105690004AB100221A7085F31088094A3146FAF798
:1056A000C7FF204670BD85F31088FAE70024F8E7AD
:1056B0004FF0FF34F5E700BFE81000202A0000207B
:1056C000F9550008FFF7D0BF054B064AD97981424A
:1056D00002D0934202D1002318467047083BF5E7F9
:1056E000F873FF1F0070FF1FC0E900007047EFF361
:1056F000108272B603681B1A5842584182F3108810
:105700007047EFF3108372B60268C1E900200160B0
:105710000A68516083F310887047EFF3108372B604
:1057200042684A60086041604A68116083F31088EB
:105730007047EFF3108272B6D0E900131960016868
:105740004B6082F31088704710B5EFF3108472B687
:1057500003680B600068FFF7ECFF84F3108810BD4E
:1057600010B59DF8084001600021C0E90311C0E9AF
:10577000051142600381047714F0020003D0581A27
:1057800018BF0120404210BD2DE9F04F05890446A5
:105790008B46D0E9040185B0002D029314BF4FF071
:1057A00000084FF00208002933D0002D34D166687C
:1057B0002568431CB34228BF9B1B2F5CEB5C023760
:1057C00007EB0327BFB21546E36883429EBF6368B9
:1057D0001B1ADA1B029B05EB080088BF002203FBA3
:1057E00000F696421CD3B2FBF0F300FB1323DBB2AE
:1057F000984515D2227F12F0010F08BF00239007B1
:1058000054BF9BB21FFA88F365B9002005B0BDE80C
:10581000F08F1DB92F46D6E72F46D5E70F46D3E7C1
:105820000023F1E7314462680B449342EDD82B0A20
:10583000019305EB08034FF0000A9BB2D146CDF867
:1058400000A00393009B0299206962688B4206D1F5
:1058500040449042236828BF801A1844D6E7384451
:105860009042238928BF801A20618BB92268019950
:1058700015546268431C9A4298BF9B1A2268D154FF
:10588000581C6368834298BFC01A6369023363611E
:1058900063681B1A9D422E4628BF1E469D4203D9AF
:1058A000B542237F24D90BBB2368324618440BEB47
:1058B0000A0100F045FA6369039F3344B14663610E
:1058C000AE1B002056B1236809EB0A01324618448A
:1058D000594400F035FA63691E446661A3690133D7
:1058E000A361009B01330093AA44ABE7002EF5D0DF
:1058F000DA0721D5238943B923680344FF2203F83B
:10590000022C2368184400F8012C636922891E4484
:105910006661002A38D1236801991D702368597087
:105920006369023363612E469146022008EB060745
:105930000023BFB22361C5E79B07F7D52389002B5E
:105940007FF463AF23680344320A03F8026C2368D0
:1059500003440BEB0A0103F8012C23683246184478
:1059600000F0EEF9A269636901323344A261226852
:105970006361AB1B13702268190A517062690232AD
:10598000B14662611E46D0E74FF000092E464846F8
:10599000CCE7028903464069002A4FF00002F0B5C7
:1059A00014BF002602260A80002852D01D891F68D5
:1059B000DC685A685DB904F1010C944528BFACEB72
:1059C000020C3D5D17F80CC005EB0C25ADB20D8047
:1059D00093F81CC00CF0030CBCF1010F20D14FF662
:1059E000FF7C654501D11D8945B11D69A54217D2CE
:1059F0001D89ADB1A2EB040CAC4511D20444A41A2C
:105A00005C611C890020D8604CB9012A94BFC2F1A6
:105A1000010001203C78385C04EB0024A4B20C8027
:105A2000D3F80CC00C885D690CEB0600904204EBC7
:105A3000060128BF801A6D1A38445D6135B104EB48
:105A40000C013144914228BF891AD9609A69013A00
:105A50009A61F0BD0389002B4FF000030B8043696E
:105A6000F0B514BF00250225002B35D00289C66889
:105A7000D0E9003442B9771CA74228BF3F1B9A5D8A
:105A8000DF5D02EB072292B20A80077F07F003076F
:105A9000012F1BD14FF6FF77BA4201D102893AB1EB
:105AA0000269B24212D2028982B1A71B97420DD27B
:105AB00002894AB9012C94BFC4F1010001201A786F
:105AC000185C02EB002292B20A800026A819A042BC
:105AD00028BF001B1844F0BD1846FCE7024B00220B
